:020000040800F2
:10000000000002207D800108D5070008D9070008FC
:10001000DD070008E1070008E50700080000000010
:10002000000000000000000000000000E9070008D8
:10003000ED07000800000000F1070008F5070008C0
:10004000CD800108CD800108CD800108CD80010858
:10005000CD800108CD80010801080008F9070008DB
:10006000CD800108CD800108CD800108CD80010838
:10007000CD800108CD800108CD800108CD80010828
:10008000CD800108CD800108CD800108CD80010818
:10009000CD800108CD800108CD800108CD80010808
:1000A000CD800108CD800108CD800108CD800108F8
:1000B00009080008CD800108CD800108CD80010825
:1000C000CD800108CD800108CD800108CD800108D8
:1000D000CD800108CD800108CD800108CD800108C8
:1000E000CD800108CD800108CD800108CD800108B8
:1000F000CD800108CD800108CD800108150F0008D2
:10010000CD800108CD800108CD800108CD80010897
:10011000CD800108CD800108CD800108CD80010887
:10012000CD800108CD800108CD800108CD80010877
:10013000CD800108CD800108CD800108CD80010867
:10014000CD800108CD800108CD8001080D08000890
:10015000CD800108CD800108CD800108CD80010847
:10016000CD800108CD800108CD800108CD80010837
:10017000CD800108CD800108CD800108CD80010827
:08018000CD800108CD800108CB
:10018800F0B54FF4406083B0C4F20200002937D0C4
:100198004FF400510CF032FF4FF44060C4F20200FB
:1001A8004FF480410CF02CFF40F20C67C2F20007BC
:1001B8004DF250154DF25414C2F20004C2F200057B
:1001C8002068296801F04CF84AF6C4262268296894
:1001D8000346C2F20006C3EB010C02EB030EC4F89F
:1001E80000E03068C5F800C021462A4600243B4696
:1001F800009401F0C9F888B1023022D003B0F0BDF4
:100208004FF480410CF0FAFE4FF44060C4F2020053
:100218004FF400510CF0F4FE264FC9E74DF2581484
:10022800C2F200042146306801F064F86268012ACD
:1002380018BF21690BD0384603B0BDE8F04000F084
:1002480059BE4DF25810C2F200000169F3E7206967
:10025800410000282BDB7B1807EB80021E881680E4
:1002680033F8025900F001065580043A451EF0B1F2
:100278004EB11E88168033F802E9013DA2F802E06B
:10028800043A681C13D01E889C4616803CF8020964
:10029800508033F8023C22F8043C6346161F023DA6
:1002A80033F802E9321F681CA6F802E0EBD121619D
:1002B800C1E700BF0C260020F0B583B002AB0026D2
:1002C80003F8016D0F461446194601226B46054690
:1002D80000960AF0D9FC10B9009E012E02D0012028
:1002E80003B0F0BD013F772F12D8284621463A4681
:1002F8006B460AF0C9FC20B100998F4218BF3046FE
:10030800EED19DF8070060B101280CD00020E7E786
:10031800A968284679180AF06BFF003018BF012039
:10032800DEE7E055DCE7022F2CD92078FF2824D01F
:100338000023D94314F803C00233C81901229F428D
:1003480084F800C0C0F3400114D939B114F803C0CF
:10035800023302229F4284F801C00BD914F803E04B
:10036800023304F802E00132E05C0233A0540132A7
:100378009F42F3D80020A054B2E76278FE2AD7D172
:100388000223D6E73A46002FD2D1F3E710B52E2143
:10039800044612F011F8D0F1010338BF0023A0423F
:1003A80014BF1C4643F001040CB9013010BD4BF6D4
:1003B8000430C0F6010010BD2DE9F04F4BF60431B2
:1003C800ADF50D7DBA4A4FF4807371A8C0F60101EE
:1003D800809281930AF0E4FF002840F0DF804AF21F
:1003E800A0694DF250144DF25416C2F20009C2F23F
:1003F8000004C2F20006CB4671A87AA90BF006F8F1
:10040800002840F0CB809DF8F131002B00F0C68029
:100418002E2BF1D0809B187808B97CA94B1C9DF82D
:10042800F0C15FEACC60E7D44BF6F0214BF604321A
:10043800C0F60101C0F6010203A811F053FE03A89B
:10044800FFF7A4FF01464BF6F820C0F6010011F0B3
:1004580071FE0028D0D14BF2BC084AF2A0604FF4DC
:100468000055C2F20008C2F2000003A9012225606B
:10047800C6F800800AF056FB05460028BCD14AF2AF
:10048800A060C2F2000082A90A228BAB8DF8D4507A
:100498008DF84C518B950AF0F7FB78B98B9F0A2F92
:1004A8000CD19DF808A2BAF1490F7BD007464AF251
:1004B800A060C2F2000039460AF09AFE4AF2A06033
:1004C8004BF2BC01C2F200014FF400528AABC2F2F7
:1004D80000000AF0D9FB4AF6C42700F0BBFEC2F2BE
:1004E8000007022106220023386040F20F1000F0B6
:1004F8003BFBAF2000F02AFB40F28910C0F6000059
:10050800002100F079FC4FF0000A40F6FF75C4F2B4
:10051800020A2068A842FCDC4BF2BC002268316861
:10052800C2F2000011F0E6FC27682268C6F80080D5
:10053800C7F500574AF2A06008EB02018AAB3A46B9
:10054800C2F200000AF0A0FB8A998F4294BF0027EC
:1005580001274FF40053002818BF47F00107236014
:100568001FB9DAF81000C207D3D500F077FC0622CD
:100578000221002340F20F1000F0F6FA002000F0EC
:10058800E5FA4AF2A060C2F200000AF029FE002251
:10059800C4F202021369DB07FCD42DE70DF50D7DCB
:1005A800BDE8F08F9DF809E2BEF1440F7FF47EAFFD
:1005B8009DF80A32332B7FF479AF9DF80F029DF82E
:1005C8000EE29DF80B129DF811329DF810729DF8FD
:1005D8000DC2019100F07F05AA030EF07F0A42EADE
:1005E8004A5103F07F0541EA050207F07F005FEA00
:1005F8004C6142EAC01700F1978002254AF2A060D8
:10060800C2F2000085A90A228BAB0AF03DFB8246A4
:1006180000287FF453AF8B990A297FF44FAF9DF8D8
:100628001422002A3FF443AF4BF6FC2185A8C0F6FC
:100638000101032211F06CFE00283FF438AF019B42
:1006480085988DF824A2032B889058D0042B3CD091
:100658004BF6003188A8C0F6010111F06BFD48B3D4
:100668004BF6083188A8C0F6010111F063FD70B996
:100678004AF2A060C2F20000514653AAFFF71CFEDE
:1006880000287FF414AF013D002DB7D10FE7D9F84A
:1006980008204AF2A060C2F200000AEB02010AF048
:1006A800A7FD00287FF40AAF002DA7D1FFE600BF01
:1006B8000C4600204AF2A060C2F20000514635AA5A
:1006C800FFF7FAFD0028DED0F1E69DF818329DF814
:1006D80019129DF81A029DF81BC203F07F024FEA17
:1006E800C21E01F07F0A0EEB0A03D90100F07F0257
:1006F8008B184FEAC31E0CF07F0AF244A8E79DF856
:1007080018129DF819C29DF81A229DF81B024FEA8B
:10071800012A0AEB0C034FEA032E0EEB02014FEA03
:10072800012C0CEB000A93E74AF2A06088A9042286
:100738008BABC2F200000AF0A7FA9DF821329DF8AF
:1007480020529DF823C29DF822A2DBF8081003F07E
:100758007F0005F07F02830343EA42500CF07F05D7
:1007680040EA05030AF07F020D1F43EAC21C4AF261
:10077800A060C2F2000005EB0C010AF039FD002868
:100788003FF43BAF9AE600BF4AF29C63C2F2000313
:100798001A6812B11968481E18604AF6C823C2F2CE
:1007A80000031868421C1A60704700BF82B04AF202
:1007B8009C620190019BC2F200021360106800283D
:1007C800FCD102B0704700BF704700BF704700BF40
:1007D800FEE700BFFEE700BFFEE700BFFEE700BF81
:1007E800704700BF704700BF704700BFFFF7CCBF1E
:1007F80002200CF085BA00BF01200CF081BA00BFBE
:1008080000F000BD4AF6CC20C2F2000011F0C0BAD8
:100818004FF46053C4F202030022186840F001014B
:1008280019609A60186843F2100120F0847C2CF457
:100838008030C2F2004118605960186882B020F414
:1008480080211960DA6000920192186840F48032C1
:100858001A601A4603E00098B0F5A06F09D0116835
:1008680001F4003301930098411C0091019B002B77
:10087800F1D04FF4605CC4F2020CDCF8003013F4E1
:10088800003208BF019201D001210191019801288D
:1008980008D04FF46D43CEF200034FF0006098602B
:1008A80002B070474FF46053C4F202034FF4E04CB7
:1008B800186CC4F2000C40F080511964DCF8002078
:1008C80042F48040CCF80000996899609A6842F434
:1008D80000409860996845F2084041F4A052C0F27F
:1008E80040709A605860196841F080721A60194621
:1008F8000A684FF460539201C4F20203F8D54FF42A
:10090800705CC4F2020C40F20560CCF800009968F3
:1009180021F003029A60986840F002019960996892
:1009280001F00C02082AFAD1B3E700BF4FF4605374
:10093800C4F202039A6802F00C02042A04BF47F6C4
:100948004001C0F27D1106D0082A1CBF4FF4105197
:10095800C0F2F40110D04FF46050C4F2020040F22B
:1009680000038268C2F20003C2F3031C13F80C00F0
:1009780021FA00F11961704758685A68596810F4EB
:10098800800F4FF4605C14BF47F640034FF41053D8
:10099800C4F2020C14BFC0F27D13C0F2F40302F0DB
:1009A8003F02C1F38810B3FBF2F1DCF80430C3F363
:1009B800014201FB00F1501C4300B1FBF3F1CAE70F
:1009C80000207047002070470120704700207047C2
:1009D8004FF0FF30704700BF0020704744F2147397
:1009E800C2F20003186838B141186A46914294BFB0
:1009F80019604FF0FF3070474DF6B860C2F2000042
:100A08001860F1E770B5161E0C4613DD00254FF48B
:100A18008840C4F20000615D0DF0F4FB4FF488409B
:100A2800C4F2000040210DF0BBFC0028F6D00135CF
:100A3800B542ECD1304670BD10B44FF4A843C4F2AF
:100A480000031C8B4FF4A842A407C4F20002F8D498
:100A5800B2F800C01FFA8CF444F480731380948AAF
:100A68004FF4A843E407C4F20003F8D594221A828D
:100A78001C46B4F814C04FF4A8435FEA8C72C4F261
:100A88000003F6D51A8B1882988A4FF4A8420006FC
:100A9800C4F20002F8D51182918A4FF4A84349079D
:100AA800C4F20003F8D5198888B240F400721A809D
:100AB80010BC704746F2B80C08B5C4F2020C42F6F6
:100AC800504344F21872C2F20002C0F20103CCF89B
:100AD800003011681369CCF8041043F60C40C4F2D6
:100AE8000000CCF8080051680420CCF80C10CCF8B1
:100AF8001400DCF8001041F00100CCF800000020E0
:100B08005060916881F0010001219060117313B168
:100B180091685069984708BD08B502209E21FFF7E3
:100B28008BFF4FF47053C4F200034FF460629A8352
:100B380008BD00BF08B502200121FFF77DFF4FF473
:100B48007053C4F2000300229A8308BD193010B50F
:100B5800C4B221462020FFF76FFF21202146BDE8BF
:100B68001040FFF769BF00BF2DE9F04F44F2187538
:100B780087B0C2F200050024824601206C60019112
:100B88002C600146AC602C616C612C7391469846D0
:100B98000BF018FF022001210BF014FF04200121A3
:100BA8000BF010FF082001210BF00CFF01214FF47E
:100BB80000100BF007FF4FF4406601214FF40010BE
:100BC8000BF02AFFC4F2020601214FF400400BF09B
:100BD80023FF022510274FF0010B304603A9039786
:100BE8008DF810B08DF812408DF811508DF8134023
:100BF8000CF020F94FF480604FF41073C4F2020037
:100C080003A903938DF811508DF810508DF812B088
:100C18008DF813400CF00EF94FF480600621042281
:100C2800C4F202000CF0FCF94FF4806004220921A0
:100C3800C4F202000CF0F4F94FF400604FF4A4522F
:100C4800C4F2020003A903928DF811508DF81050D8
:100C58008DF812408DF813400CF0ECF84FF400605A
:100C68000721C4F2020006220CF0DAF94FF4006002
:100C78000A21C4F2020006220CF0D2F94FF40060F7
:100C880006220C21C4F202000CF0CAF92046C4F274
:100C9800020003A903978DF811508DF810508DF8B4
:100CA80012408DF813400CF0C5F8204606220421A6
:100CB800C4F202000CF0B4F977830594059B44F65E
:100CC800FE72934206DC00BF059B591C05910598EE
:100CD8009042F8DD4FF4406EC4F2020E1022AEF8D6
:100CE800182001214FF400100BF0DCFE00214FF416
:100CF80000100BF0D7FE4FF4A843C4F200032A20DB
:100D0800D22248F23301988019819A832B221A84BF
:100D180040F201421A8002200121FFF78DFE0420D3
:100D2800AF21FFF789FE05208121FFF785FE042109
:100D38000620FFF781FEFF20FFF708FF02209E2113
:100D4800FFF77AFE0A200021FFF776FE0E20042125
:100D5800FFF772FE27200021FFF76EFE1F200F21EC
:100D6800FFF76AFE1A200A21FFF766FE1B200A21F8
:100D7800FFF762FE4FF4705CC4F2000C4FF460524F
:100D8800C4F202020020ACF81C009168019B4FEAF3
:100D98008A1A21F400004AEA03739060C2F884308A
:100DA800116841F08060106013681B01FCD54FF496
:100DB8007051C4F2000149F4007949EA08284FF457
:100DC800606CA1F82080A1F81CC007B0BDE8F08FC6
:100DD8004FF47053C4F2000319894FF47052890715
:100DE800C4F20002F8D59081704700BF4FF47053E9
:100DF800C4F200039881704746F2B803C4F20203B4
:100E08000246186870B520F001041C60084619688D
:100E180011F00104FBD144F218734FF46146C2F299
:100E28000003CEF200064FF400414FF470551C73D6
:100E3800C4F200057160402186F82F13B5F804C08C
:100E48001FFA8CF141F0020CA5F804C01A61586130
:100E58009C600AB19968904770BD00BF46F2B8031C
:100E6800C4F2020310B4186820F001011A46196090
:100E7800146814F00103FBD144F2187CC2F2000C90
:100E88004FF47051C4F200018CF80C308A884FF48A
:100E9800614422F002000204CEF20004100C4FF468
:100EA80000428880C4F88420CCF8103010BC704709
:100EB80044F21873C2F2000310B55A680AB1002050
:100EC80010BD4FF4614CCEF2000C4FF40044CCF846
:100ED8008440586019601B7B43B14FF46141CEF2E6
:100EE80000014FF400404860012010BDFFF7E2FD0B
:100EF800F3E700BF38B505460C4600E030BF28468A
:100F08002146FFF7D5FF0028F8D038BD4FF4C0427E
:100F1800C4F2020244F21873D068C2F2000340F02F
:100F28000061D1605A680AB1FFF7C4BD1A737047EF
:100F3800704700BF704700BF704700BF704700BFD1
:100F4800704700BF704700BF704700BF704700BFC1
:100F5800704700BF704700BF704700BF012070474F
:100F6800704700BF704700BF4DF2E05110B5002038
:100F7800C2F2000109F0C6FD044680B944F20C73C0
:100F8800C2F200034FF4406019684A1CC4F2020020
:100F98004FF480511A600CF031F8204610BD4FF024
:100FA800FF3010BD4FF44060C4F202004FF480419E
:100FB8000CF024B808B54FF4FA7000F0FBF8BDE85F
:100FC8000840FFF7D1BF00BF10B54FF44064C4F22A
:100FD80002044FF4804120460CF012F820464FF4EA
:100FE80080510CF00DF844F20C73C2F20003002299
:100FF8001A6010BD30B544F23474C2F200040346DE
:1010080085B00D464FF08040002123600CF0D8F9E0
:10101800012100224FF080400CF06AFE022D2FD0F3
:10102800012D04BF42F6DF630293002205234FF02F
:10103800804001A9ADF80430ADF80C20ADF80620C9
:101048000CF0F0F84FF0804001210CF073FE4FF0E7
:10105800804001210CF08AF901214FF080400A46B6
:101068000CF046FE4FF0804001210CF0A9F92168F0
:101078000029FCD14FF080400CF0A2F905B030BD3A
:101088000B200290D1E700BF704700BFF0B50120E8
:10109800002585B0C4F2020501460BF093FC00263A
:1010A8004FF4D053032701A92846022401938DF851
:1010B80008408DF809708DF80A608DF80B600BF008
:1010C800B9FE284609210A220BF0AAFF28460B215F
:1010D8000A220BF0A5FF28460A220C210BF0A0FFDC
:1010E800012401A928464FF4806201928DF80A4034
:1010F8008DF80B408DF809700BF09CFE0A210A460A
:1011080028460BF08DFF21464FF480400BF092FCEF
:10111800802021460BF064FC31464FF000600BF054
:10112800AFFA4FF4A0600BF05FFA03A81C238DF808
:101138000C308DF80D608DF80E408DF80F400BF0D7
:101148005DFA204621460BF067FC05B0F0BD00BFF4
:1011580010B54FF4C06082B00BF046FA012401A824
:1011680043228DF804208DF805408DF806408DF84F
:1011780007400BF043FA1721022301A88DF8041049
:101188008DF805408DF806308DF807400BF036FADB
:1011980002B010BD4FF40060C4F2020011B1012189
:1011A8000BF02EBF01210BF029BF00BF0221FFF772
:1011B80021BF00BF0121FFF71DBF00BF30B54FF4AD
:1011C800006583B004200121C4F202050BF0FAFB8C
:1011D800012400230222284669468DF805208DF84F
:1011E80006308DF8073000948DF804400BF022FE8D
:1011F800284621460BF002FFC820FFF7DBFF03B0AB
:1012080030BD00BF08B54FF0804001210CF086FDCD
:1012180000B908BD01214FF080400CF08BFD44F26D
:101228003473C2F20003196819B11868421E1A60B3
:1012380008BD4FF08040BDE808400CF0C1B800BFC1
:10124800BCBB0108000000200C0600200C06002092
:10125800B8DE002000F09ABE08B100F013BF704756
:101268000139002930B434DD03464C1E13F8012B34
:101278000020FF2A04F001042ED00120814228DD3D
:101288008CB113F8012BFF2A2DD0013081420ADCE2
:101298001FE01346013013F8014BFF2C05460FD011
:1012A800681C814215DD1A4612F8014BFF2CF0D15B
:1012B80093F801C00CF0E003E02BEAD130BC704792
:1012C800527802F0E00CBCF1E00FF7D0681C8142C4
:1012D800E9DC4FF0FF30F1E793F800C00CF0E002D2
:1012E800E02ACAD1EAE71A7802F0E00CBCF1E00F74
:1012F800CBD1E3E770B418B1D0F8D037032B09D0BD
:1013080000230B604B608B60CB600B614B618B6182
:1013180070BC704790F8D427D0F8B867D0F8BC47AD
:10132800D0F8C0570E6048F2904CC0F6010C02EBA2
:1013380042060CEB46004C60B0F904C08D600CFB13
:1013480004F41020C8600C614B618A61E0E700BFBB
:1013580038B50C46054688B1114600F0E1FB01306E
:101368000FD0D5F8D037032B05D128462146FFF7F3
:10137800C1FF002038BD6FF0050038BD6FF00400D4
:1013880038BD6FF0050038BD2DE9F04F0D4689B026
:1013980090461E460446002800F0DF82096800F0E7
:1013A800BFFB00280390C0F25581296809182960FD
:1013B800204600F0B1FC00280490C0F2C7810399D0
:1013C80004982B68D8F8002001EB000BCBEB020245
:1013D80019182960C8F80020D4F8B8370591002BEF
:1013E8007CD1D4F8B027002A7BD10121C4F8B017EA
:1013F800D8F800A005980AF1FF3CBCF1000FCBEB30
:10140800000BA94641DD05780CF1FF370023411C8C
:10141800FF2D024607F0010700F05F8101236345B5
:1014280033DAB7B10A46C91892F800E0BEF1FF0FE7
:1014380000F05B81013363450BDB26E0057801335F
:10144800411CFF2D02461F4600F009817B1C6345A5
:101458001BDA0D78481CFF2D0A46EFD1497801F0B8
:10146800E00EBEF1E00FE9D19BF80000FF2800F084
:1014780002814FF6FD70CFF6FF70C11A8A440AF157
:10148800FF3CD01CBCF1000FBDDC4FF0FF30C4F8AE
:10149800B407D4F8C437D4F8C807D4F8BC1700FB8D
:1014A80003F201FB02F1002915DD490002238A1E1F
:1014B80000208B423080C2F340020CD022B10423BA
:1014C80000208B42708006D000209A1CF052043312
:1014D8008B42B052F8D16FF00200BDE0D4F8B037BB
:1014E8004BB1D4F8B477204600F00CFBC119C4F80E
:1014F800CC17D8F800201298002800F0FE80D4F805
:10150800D837C4F8CC27002B40F08280002A7FDD32
:10151800C4F8DC272F68D8F80000BB18811A2B60A4
:10152800C8F80010D4F8C417D4F8DC37002081427A
:101538000790C2BF4FEAC3088346039640F38C80E6
:10154800D4F8BC37002B40F34D8104EBCB0505F5EF
:10155800FA6A079E0AF10C0A002518E03F18394676
:10156800204607AACDF800B0019501F043FC0028F9
:10157800C0F2B581079ED4F8BC17A9EBC0030135AA
:10158800C6EB0309A9420744C84440F32B814346EC
:1015980007AA20463946CDF800B0019504F00CFDA5
:1015A800DDF81C905AF8042FC6EBC00C0CEB0906AA
:1015B800931BC6EB0808C60F9845B8BF46F001064E
:1015C800002ECBD0D4F8C817D4F8C437D4F8BC0749
:1015D800039E01FB03FE00FB0EF1002915DD490007
:1015E80002238A1E00208B423080C2F340020CD0B6
:1015F80022B1042300208B42708006D000209A1C60
:10160800F05204338B42B052F8D16FF0070023E058
:10161800D4F8C407D4F8C837D4F8BC1703FB00F2D1
:1016280001FB02F1002915DD490002238A1E002072
:101638008B423080C2F340020CD022B10423002236
:101648008B42728006D000209A1CF05204338B42E1
:10165800B052F8D16FF0050009B0BDE8F08F90F8EE
:1016680001E00EF0E000E0287FF4F0AE9BF8000007
:10167800FF287FF4FEAE92F801C09BF801E0F44524
:101688007FF4F7AE9BF8021092F802C08CEA0100D2
:1016980010F0FC0F7FF4EDAE8B07059B48BF013AB5
:1016A800D71A002F4D46C4F8B477FFF6F2AE039B65
:1016B800DDF810E0D4F8C007D4F8C817DA1902EB3F
:1016C8000E0CD4F8C43700FB0CF2D00001FB03FE6B
:1016D80090FBFEF1C4F8B81705E7407800F0E00E7B
:1016E800BEF1E00F7FF49AAEBEE691F800E00EF08E
:1016F800E000E0287FF49EAEB6E6D4F8CC379342FB
:1017080049DDD4F8C437D4F8C807D4F8BC1700FBAF
:1017180003F201FB02F1002915DD490002231298AA
:101728008A1E8B423080C2F340020CD022B10423BF
:10173800129A8B42728006D000209A1CF052043311
:101748008B42B052F8D14FF0FF3085E7D4F8C41778
:10175800D4F8C827D4F8BC0702FB01F300FB03F157
:10176800002915DD490002238A1E00208B423080A3
:10177800C2F340020CD022B1042300228B427280B3
:1017880006D000209A1CF05204338B42B052F8D194
:101798006FF0060060E7D4F8DC17D4F8D827914238
:1017A80061DB8F1AE11904F11C071C31384610F06F
:1017B80019FCD4F8D8372968D4F8CC27E0181C309D
:1017C80010F098FBD4F8CC37D4F8D8172A68C81882
:1017D800C4F8DC07D8F80010D018C91A2860C8F86F
:1017E80000109FE62046594600F04EFC0028C0F243
:1017F800B780D4F8BC37002B40F39880002505E06B
:10180800D4F8BC370135AB4240F3908020465946A6
:101818002A4602F0C3FC0028F2DAD4F8C437D4F818
:10182800C807D4F8BC27039E00FB03FE02FB0EF298
:10183800002A15DD52000223911E002093423080B9
:10184800C1F340010CD021B10423002093427080E1
:1018580006D00020991CF052043393427052F8D1FC
:101868006FF00A00F8E604EB010C1A4629680CF13F
:101878001C0010F03FFBD4F8CC37D4F8DC172868EC
:10188800CA18C4F8DC27D8F80010C218C81A2A6089
:10189800C8F80000D4F8C417D4F8C837D4F8BC077F
:1018A80003FB01F200FB02F1002915DD49000223C8
:1018B80012988A1E8B423080C2F340020CD022B1AB
:1018C800042312988B42708006D000209A1CF05294
:1018D80004338B42B052F8D16FF00100BCE6D4F863
:1018E800C437D4F8C807D4F8BC1700FB03FC01FBC5
:1018F8000CF10029B146039E15DD490002238A1E1A
:101908008B42A6F80090C2F340020CD022B1042307
:101918008B42A6F8029006D000209A1CF05204339D
:101928008B42B052F8D16FF0080095E6D4F8C8178A
:10193800039A01FB0BF003FB00F302EB4301204683
:1019480005F0F6FC002831DBD4F8C4270BF1010BB5
:101958005A453FF7F5AD00207EE66FF004007BE6C0
:10196800D4F8C437D4F8C817D4F8BC07039E01FBD1
:1019780003F200FB02F2002A15DD52000223911E39
:10198800002093423080C1F340010CD021B10423E0
:1019980000219342718006D00020991CF052043334
:1019A80093427052F8D16FF0090055E6D4F8C43765
:1019B800D4F8C807D4F8BC27039E00FB03FC02FB3D
:1019C8000CF2002A15DD52000223911E00209342DA
:1019D8003080C1F340010CD021B10423002193428F
:1019E800718006D00020991CF05204339342705243
:1019F800F8D16FF00B002FE6002380E80C0083601D
:101A0800C1607047F0B401F01F0142688468C1F1F9
:101A18001F0C034622FA0CF002FA01F2611A400880
:101A280000295A60996001DBF0BC7047DE684942C2
:101A3800032E39DC00245C60354632467EB31C68D0
:101A48002246371912F8015BE4432D0204EB070C18
:101A5800BA4283E824000CF0010415D024B112F82E
:101A680001CB4CEA05050AE0144614F801CB4CEA10
:101A780005052D0283E8300052781543621C2D02BB
:101A8800BA4283E82400EFD1C6F10302D40005FA74
:101A980004F4C1F1200224FA02F204FA01F5002448
:101AA800DC60C1EBC6041FE01A681446971C14F8E2
:101AB800015B2D0683E8300092F801C01F6045EAFB
:101AC8000C455D609778D41C45EA072583E830000B
:101AD800D478043E25430432C1F120041A60DE6044
:101AE80025FA04F205FA01F510439C605D609BE756
:101AF80010B404688068641AC0EBC403981A10BC58
:101B0800704700BF30B103683BB15869003018BF57
:101B1800012070474FF0FF3070474FF0FF3070479B
:101B28002DE9F00F86B0002800F0EF800368002B45
:101B380000F0EB800A78FF2A40F0E7804A7802F04C
:101B4800E004E02C40F0E180D208940740F0D38014
:101B580002221A7091F801C0CCF34106C6F10405BF
:101B68005D604C78019604F0010686F0010CC3F81C
:101B780008C000958D782D09DD608C78C4F3810448
:101B88001C6191F80280C8F340065E6191F80280FA
:101B9800029608F001069E61CE78B6091E7791F884
:101BA8000380C8F30118C3F8208091F80380C8F3B4
:101BB800C008C3F8248091F80380C8F38008C3F8EC
:101BC800288091F80380032C08F00308C3F82C80C0
:101BD80000F09B80009F042F00F097800F2D00F0ED
:101BE80094804A2707FB04F748F2D00B4FF0DE0A2F
:101BF8000AFB0277C0F6010B07EB0B09012EC3F8AD
:101C0800349000F085804FF00008032E14BF02279F
:101C18000127C3F820800597019F80F8D4274FEA51
:101C2800420BC7F10307CDF80CB048F29049934432
:101C380048F2B4580BEB070AC0F601080197C0F642
:101C480001090BEB040739F91A9058F827A0059FEA
:101C5800C0F8C0A7002A14BF4FF001084FF00208CF
:101C6800C0F8BC77009FC0F8C48799FBF8F9C0F8A2
:101C7800C897C0F8D0778DB3DDF80490C4EB04188A
:101C8800CBEB0B1BC9EB091707EB0B0948F2A44276
:101C9800C344A944AB44C0F60102039D32F919209C
:101CA80048F26C3748F27C48032E18BF0135C0F65D
:101CB8000107C0F6010837F91B7038F915405501BE
:101CC800AD1A02EB85053C1BEA00043C029DC0F8F6
:101CD800B827A4EB4C042C19C0F8CC47BCF1000F72
:101CE8000FD00A79497941EA02201863062006B024
:101CF800BDE8F00F704712F0010F14BF0022012257
:101D080027E7C3F830C00420F1E74FF0FF30EEE7D3
:101D18000227059780E700BF2DE9F04F824689B07A
:101D2800002800F02A81D0F80080B8F1000F00F0F8
:101D3800288142680292002A00F01F8198F800600A
:101D480098F81C30049104AD002E40F0FA80032B63
:101D580014BF2022112209212846039207920596D2
:101D68000696FFF74FFE98F81C20029B032A14BF23
:101D78000321052118602846FFF744FEDAF8BC372E
:101D88000299002B4860C8BF029C19DD0121284632
:101D9800FFF738FE0121A0602846FFF733FE012136
:101DA800E0602846FFF72EFE012120612846FFF754
:101DB80029FE6061DAF8BC2701361034B242E5DC4E
:101DC800DAF8C427002A40F382800023029800939F
:101DD8000021DAF8BC3701918B4600F12809002B65
:101DE8006CDD009E00270C212846FFF70BFE092119
:101DF80049F806002846FFF705FE09EB0604082106
:101E080060602846FFF7FEFD98F800C0A060BCF1AE
:101E1800000F14BF092104212846FFF7F3FD012113
:101E2800E0602846FFF7EEFD2061002857D0022128
:101E38002846FFF7E7FD012160612846FFF7E2FD2C
:101E48000521A0612846FFF7DDFD0521E061284650
:101E5800FFF7D8FD03212062C4F824B02846FFF715
:101E6800D1FD0321A0622846FFF7CCFD0321E062E3
:101E78002846FFF7C7FD63692063002B54D1616BC7
:101E880063602360E360C1F1140398F80010A36352
:101E98000020002943D00121E0632846FFF7B2FD66
:101EA800012120642846FFF7ADFDDAF8BC376064ED
:101EB80001374836BB4296DCDAF8C4270199481C3A
:101EC80001900099019890318242009187DC029834
:101ED8000268CAF8D827039809B0BDE8F08F052131
:101EE8006061A0612846FFF78DFD0521E061284665
:101EF800FFF788FD052120622846FFF783FD0421AE
:101F080060622846FFF77EFD032160632846FFF7DD
:101F180079FD98F80010A06300200029BBD128465D
:101F28000121FFF76FFDB6E7022B03D0072060639E
:101F38000D23AAE7A369002BF8D1082262630C23BA
:101F4800A3E7032B14BF112009200390039B002251
:101F580008212846059206920793FFF753FD98F843
:101F68001C30029A032B14BF02210121106028465D
:101F7800FFF748FD0299486022E74FF0FF330393CB
:101F8800A9E74FF0FF310391A5E700BF44F238728B
:101F9800C2F2000202F52861324B0C31F0B402F5AE
:101FA8000264D1603049136103F5527502F5FE678A
:101FB800083402F5176602F5FC6302F502609161C8
:101FC80017605460966055610F33073000215A1C22
:101FD8005970023383425170F9D1244B002103F523
:101FE800A4705A1C5970023383425170F9D1204BA6
:101FF800002103F58E705A1C5970023383425170C8
:10200800F9D11C4B03F59050103000215A1C59701F
:10201800023383425170F9D1174B002103F55270F6
:102028005A1C5970023383425170F9D1134B002165
:1020380003F5D9505A1C5970023383425170F9D1B3
:102048000F4B03F50850043000215A1C5970023315
:1020580083425170F9D144F23870C2F20000F0BCEA
:10206800704700BFD46300203C8200205F4F0020EF
:10207800A7500020C3510020D36300201B67002015
:102088003B820020704700BF2DE9F04F8C468FB08F
:102098000546002800F095810768002F00F091811F
:1020A80040680990002800F08C81AA680792002AED
:1020B80000F08781EE68002E00F08381D5F810804B
:1020C800B8F1000F00F07D81D5F8BC370024A34299
:1020D8000D940C943BDD4A0101EBC103521A06F53D
:1020E800905B283008974FEA03194FEA820A0BF1F0
:1020F800040B0A902F460B9104EBC40204EB440C2A
:102108000A99079B100208EBCC0504F5906201EBD5
:10211800090E03EB0A0C414605F54675301806EB27
:102128008202089BCDF800E0CDF804C0029500F0CB
:1021380065FC4BF8040FD7F8BC170134A14209F12C
:1021480048090AF13E0AD7DC089FDDF82CC0386A36
:102158000346002857D006F59054A168002940F39B
:102168008680E268002A40F38280420815D0C107C1
:102178004CD5D8F83003002840F01381D8F8442310
:102188007B6B511C304633F91110CDF818C00CAADE
:1021980004F00EFC3B6ADDF818C0DA071FD53D785D
:1021A8002168002D41D109980CEBCC0200EB021EEE
:1021B8005B1008F546708DE80900079A4FEA4C1540
:1021C800CCEB050CDEF8885002EB8C033E3302950D
:1021D80030463A460CAD039504F068FC3B6A184655
:1021E8008BB194E80C000C98B0FA80F19A42A8BF21
:1021F80013460D98B0FA80F20139501EE060A160D4
:102208002360636000200FB0BDE8F08F94E80A00F7
:102218009942B8BF194630460CAACDF818C004F048
:10222800C7FB3B6ADDF818C0B7E74FEA6309099BAB
:10223800CDF808900CEBCC0203EB0212079B08F5D3
:10224800467503F1F80001904FEA4C1E0095D2F84C
:102258008850CCEB0E0C03EB8C033E3303953046D1
:102268003A460CAD049504F0EDFD3B6AB7E7D4F8A7
:102278000090B9F1000F46DD3346012153F804AB55
:10228800CCF2000109F1FF3B8A456FF040450BF0A5
:10229800010BC0F29380AA45C8BF43F8045C012231
:1022A8004A4530DABBF1000F14D053F804AB8A4525
:1022B800B8BF43F8041C03DBAA45C8BF43F8045C55
:1022C80001324A4506DB1EE00AF101024A4543F89D
:1022D800041C18DA53F804AB8A45B8BF43F8041C49
:1022E80003DBAA45C8BF43F8045C02F1010A53F8AE
:1022F800042B8A42E8DBAA420AF10102C8BF43F86C
:10230800045C4A45E6DBD4F80490B9F1000F46DDD9
:1023180006F51063012153F804ABCCF2000109F172
:10232800FF328A456FF0404502F0010B43DBAA45B6
:10233800C8BF43F8045C0122914530DDBBF1000FB2
:1023480014D053F804AB8A45B8BF43F8041C03DB28
:10235800AA45C8BF43F8045C0132914506DC1EE07B
:102368000AF10102914543F8041C18DD53F804AB47
:102378008A45B8BF43F8041C03DBAA45C8BF43F825
:10238800045C02F1010A53F8042B8A42E8DBAA42F2
:102398000AF10102C8BF43F8045C9145E6DC034634
:1023A800E3E6796BD8F8403301EB4300B0F930E04D
:1023B8000EEB4E012FE743F8041CBCE743F8041C5E
:1023C8006DE74FF0FF301EE72DE9F00F48F2D854C3
:1023D80003F00306C0F6010404F12808B7019B10B6
:1023E800474404EB86051F2BA8BF1F231B2BD8BF10
:1023F80003F103088CB0D5F82861D7F804A0069635
:1024080005468B46F96855F8046BD7F80890D4BF91
:1024180028EAE8784FF01F0841FA08FC48F2D8513A
:10242800C0F60101049126F0004100204AFA08FA9A
:1024380049FA08F9CDF82CC047F6991802F1FF3C83
:1024480003290890CDF824A0CDF82890C5F6822855
:102458000CF0010C00F32C810DF1300909EB81011E
:1024680051F8109C002E59464846B8BFC9F10009DA
:10247800013A41F8049B00F08980BCF1000F19D0A3
:1024880055F8046B26F00049B9F1030F029600F3E2
:102498001D810DF1300A0AEB890C5CF8109C029E34
:1024A800002E40EA0900B8BFC9F10009013A41F815
:1024B800049B6BD0CDF80C8025E00DF1300909EBB9
:1024C800880C5CF810CC002E40EA0C00B8BFCCF1A8
:1024D800000C41F804CB55F8046B26F00048013A8B
:1024E800B8F1030F24DC0DF1300B0BEB880858F81A
:1024F80010CC002E40EA0C00B8BFCCF1000C013A19
:1025080041F804CB42D055F8046B26F00048B8F1E6
:10251800030FD2DDB8F10F0F3CDC57F828C0002BB1
:10252800BABFC3F100080CFA08FC4CFA03FCCAE76E
:10253800B8F10F0F40F3AF80B8F13F0F00F35981A6
:1025480004EB8809DDF818C0D9F8F88088FB0C9CE2
:10255800A3F10308B8F1000FA8BF4CFA08FCC8DAC9
:102568006FF0004AC8F100084AFA08F9CC45C8BF1C
:10257800D446BEDC0CFA08FC002E40EA0C00B8BFBA
:10258800CCF1000C013A41F804CBBCD10CB0BDE849
:10259800F00F7047B8F13F0F40F320814FEA484CE5
:1025A8006FF0784AD445DDBF4FF0040B4FEA485C22
:1025B800CDF814B04FF000086FF0604BC8BFCDF8ED
:1025C8001480DC45D8BFDDF814A0DDF80CB0DCBF02
:1025D8004FEA8C0C0AF1020A6FF04049D8BFCDF8D7
:1025E80014A0CC45D8BFDDF81480DFF80CA4DEBFFA
:1025F80008F10108CDF814804FEA4C0C4BF6A959A4
:1026080042F26318DC45C1F28508C2F6A019C8BFBA
:10261800C146DDF81080E346C8BFD04689FB0BAB46
:10262800D8F80490E246CB448BFB0A9AD8F8089075
:10263800E346D14489FB0BABD8F80CA0D3448BFB01
:102648000C9CDDF81490D8F8108004EB8909C44478
:10265800D9F8F8A1D0468CFB08A84FEAC80CDDF8D9
:1026680018808CFB08A8D9F818C2CCEB030CBCF175
:10267800000FA8BF48FA0CFCBFF625AFCCF1000C40
:102688006FF0004B4BFA0CF9C845D4BF08FA0CFCA4
:102698006FF0004C17E757F828C0002BA8BF4CFA7A
:1026A80003FCBFF626AFC3F100080CFA08FC63E789
:1026B8000F2900F30581002B57F82100B6BFC3F19D
:1026C800000940FA03F900FA09F9CBE6B9F10F0F4E
:1026D80040F37181B9F13F0F40F382814FEA494CD1
:1026E8006FF0784AD445C4BF4FF0000BCDF81CB04A
:1026F80003DC04264FEA495C07966FF06046B44550
:1027080007DCDDF81CB00BF1020A4FEA8C0CCDF89F
:102718001CA06FF04046B44507DCDDF81C9009F1B9
:10272800010B4FEA4C0CCDF81CB04BF6A95642F2FF
:102738006319C445C2F6A016C1F28509D8BFB146CF
:10274800DDF810B0AC4ECDF80490C8BFB34666466D
:1027580089FB06A6DBF804A0CDF814C05644E2466F
:1027680086FB0A9ADBF808900AEB0906E24686FB24
:102778000A9ACDF80CA0DDF80C90DBF80C60E24664
:102788004E4486FB0A9ADDF81CC004EB8C09CDF890
:102798000C90DBF810C0039EE244D6F8F8918AFB4F
:1027A80009C94FEAC909DDF818C089FB0CACD6F88D
:1027B8001892C9EB0309B9F1000FA8BF4CFA09F93F
:1027C800BFF66DAEC9F100096FF0004B4BFA09FA7C
:1027D800D445CCBFD9460CFA09F960E604EB880960
:1027E800DDF81880D9F8F8C08CFB0898A3F1030C21
:1027F8003DE74FEA484C6FF0784BDC45C4BF4FF0DB
:102808000009CDF8149005DC4FF004094FEA485C44
:10281800CDF814906FF06048C44507DCDDF814B0BB
:102828000BF102084FEA8C0CCDF814806FF0404988
:10283800CC4507DCDDF814A00AF101094FEA4C0C7D
:10284800CDF81490DDF80CB0DFF8ACA14BF6A9591F
:1028580042F26318DC45C1F28508C2F6A019C8BF68
:10286800C146DDF81080E346C8BFD04689FB0BABF4
:10287800D8F80490E246CB448BFB0A9AD8F8089023
:10288800E346D14489FB0BABD8F80CA0D3448BFBAF
:102898000C9CDDF81490D8F8108004EB8909C44426
:1028A800D9F8F8A1D0468CFB08A84FEAC808DDF88B
:1028B80018C088FB0CACD9F81882C8EB030849E6A5
:1028C8003F2940F383804FEA41496FF0784AD14568
:1028D800C8BF079003DC4FEA4159042107916FF004
:1028E8006040814504DC0798811C4FEA89090791FB
:1028F8006FF04041894507DCDDF81CA00AF1010AA8
:102908004FEA4909CDF81CA04BF6A95A42F26311C7
:10291800C145C2F6A01AC1F28501D8BF5146364852
:10292800DDF810A0C8BF8246CDF804A0484681FB58
:1029380000A0DDF804A0CDF81490DAF80410CA4617
:10294800411881FB0A0A019988680AEB0001029183
:10295800484681FB00A0DDF804A0DAF80C10411805
:1029680081FB0909079904EB81000390DAF810103C
:10297800D0F8F8018944014689FB0101C90006988D
:1029880081FB0090DDF80C90D9F81812C1EB03090F
:10299800B9F1000FA8BF40FA09F9BFF663ADC9F154
:1029A80000096FF0004A4AFA09F18842CCBFD146C3
:1029B80000FA09F956E5002B57F82990B6BFC3F17C
:1029C800000C49FA03F909FA0CF968E504EB8109E6
:1029D8000698D9F8F81081FB0090A3F10309D7E70E
:1029E80004EB890ADDF818C0DAF8F89089FB0CAC1A
:1029F800A3F10309DFE600BFEC8501082DE9F04FDC
:102A080091B08846DDF868900390D9F8144009928F
:102A1800022C089300F0D7810D26162207960692FD
:102A2800D9F84010089AD9F80860146A0A96481C20
:102A380043000025059363080D9501D0023E0A96D0
:102A4800069C002C00F0CF810A9D1B9F069B002648
:102A5800C5F1D000013FDB070490B346354600F1CD
:102A6800A581DDF820C01B9FDCF83420D9F83C0094
:102A7800B2F900B039781B9F0124334632F914E0CB
:102A8800CBEB0E05002840F08C810398DDF814B0DC
:102A9800DDF810C0CB182A4601460BFB03C3FFF72D
:102AA80093FC002840F07B81099E31688D42834663
:102AB8006EDACDF804902646CDF82C80DDF824A0F7
:102AC800DDF8209031E0069EB4425DD00199D9F836
:102AD8003420CB6B32F9146098F801E0611C08F1DE
:102AE800010732F91180C6EB08062BB1DFF800C3E5
:102AF8000CEB010818F8013CDDF80CC0DDF8148077
:102B08007344DDF810E00CEB85000146324608FB03
:102B180003E3FFF759FCAD1900B10D94DAF8002072
:102B280095424BEA000B2FDA661CD9F83400DDF821
:102B3800048030F916E0D8F83C307978741C07F135
:102B4800010830F914C0CEEB0C072BB1DFF8A0C296
:102B58000CEB040313F8013CDDF80CC0DDF810E0C1
:102B68000CEB8500DDF814C0CB183A4601460CFB87
:102B780003E3FFF729FCED1900B10D96DAF8002000
:102B880095424BEA000B9EDBDDF82C80DDF80490C3
:102B98000D9ADDF870C00024CCF80040CCF80C4049
:102BA800CCF80840CCF80440CCF81040079CCCF88E
:102BB80014200B2C00F30381079A1B9C0A9B079F88
:102BC800CDF808B002EB42016018C3F1D006173007
:102BD8000D920E920F9204960190AA46BB46DDF81C
:102BE80020C0019FDCF83450D9F828603A78059B5A
:102BF800DDF80CC005EB4B0EF000BEF92E10BEF947
:102C08003040049D4FEA8A0703FB020E0697641AB8
:102C180067440EEB0503384641462246FFF7D4FBCE
:102C28000BF101060546079608B1CDF834B0DDF87A
:102C380004C0D9F82C30DDF80CE09CF80120059E82
:102C4800DDF810C004EB0A00D9000EEB8000DDF8B7
:102C580008E006FB0213A60045EA0E0508EB06018C
:102C6800224663440295FFF7AFFB864608B1CDF8CC
:102C780038B00198D9F830308278059D4FEA440C75
:102C88000CEB0A00CDF828C0DDF80CC0D9000CEB1D
:102C98008000DDF810C005FB02136344DDF808C0AE
:102CA800E5004CEA0E0E08EB05012246CDF808E0D7
:102CB800FFF78AFB08B1CDF83CB0029B0A9940EABD
:102CC80003020919002C02928A4438DDD8F8000062
:102CD8000399DDF818B041F80B0058F824307B60F0
:102CE80058F834200121601EA142BA6000EA0100B0
:102CF800424607F10C0322D078B1D8F8040008F155
:102D08000402F86052F82410596052F83400022185
:102D1800A142986007F1180311D0576804321F6068
:102D28009059586057599F6050680432D860975935
:102D38001F61575902315F611833A142EDD1099ED5
:102D48003468A24508DA0199079DCB1C0D2D019323
:102D580002D0DDF81CB042E7DDF824C01C9ECCF898
:102D680000A00DF1340C9CE80E00D9F81840DDF8ED
:102D780008B07160002C0CBF012502258A42ACBF47
:102D880014460C46BBFA8BF03560B260F3609C4287
:102D9800ACBF34613361013811B0BDE8F08F0D96D6
:102DA80082E6DFF84CE09EF800306EE6CDF804903D
:102DB800CDF82C80DDF824A0DDF82090B5E6BBFA2C
:102DC8008BF1481EE8E7D9F818304BB10899087814
:102DD8000325002814BF06230823079506931FE63A
:102DE800079306931CE6069A93461546D1E600BF5C
:102DF800108801082DE9F00F98B00F910792194635
:102E0800209C219B002800F0E8800268002A00F03E
:102E1800E4804568002D00F0E0808668002E00F010
:102E2800DC80C0680690002800F0D7800029C0F236
:102E3800D48004EBC404DE00200106EB0308283527
:102E480000EBC807ED1903952C69002C40F0798335
:102E5800DDF80CA0526BDAF83470DAF83840781CD8
:102E680005196F1C32F9104032F91750DDF80C9033
:102E7800DDF818C0D9F80470DDF80C9000917A00DC
:102E8800B2F5107FA8BF4FF41072002003F59068C8
:102E98009442A8BF1446824601464CF82820954221
:102EA800D4BF16951692F618CDF83480079F17925E
:102EB80015940F9A3B68149048F6881809EB0A0590
:102EC800641AB601C0F60108002C0C96CDF82C80C7
:102ED80006460192ED6977DDDDF800C0BCF1000F10
:102EE800C0F20A8448F68802C0F6010202EBC5095E
:102EF8005B4299F80400DDF82C800490019852F8A0
:102F0800352058F82570059213F0070318BF10F8FC
:102F1800015BDDF830B01CBFC3F1200205FA02F2F4
:102F2800069D594405EB810B049D08BF1A46002DE8
:102F380056D10223069F651E9C4247F82160C5F3BF
:102F48004002CBF804600BF1080B16DD42B10423F4
:102F58009C42CBF80060CBF804600BF1080B0CDD49
:102F680004339C42CBF80060CBF80460CBF80860CF
:102F7800CBF80C600BF1100BF2DC0022079C019DD2
:102F88002368D01800F007032360009C05EBE007D6
:102F98000AF1040A0197BAF10C0FC2EB0407009773
:102FA80000F0B4810DF15008E94608EB0A020AF175
:102FB800500C54685CF80910DDF80C90641A09EBA1
:102FC8000A05002CED6987DC00231A460099914216
:102FD800B8BF43F00103002BD0D04FF0FF3085E29B
:102FE80048F608250499DDF80090C0F6010505EBC0
:102FF800470C0129CDF838C0C3EB090800F0ED8271
:10300800049DA91ECDB2012D00F27683059F059976
:10301800CDF820B0C1F12001002501371291DDF86B
:10302800389010974146AB46CDF84CA01FE090F879
:1030380000804778C3F1180AC3F1100508FA0AFCA2
:1030480007FA05F54CEA050A42EA0A02023010338B
:103058001039002CD4BF002501250A2BD4BF002528
:1030680005F00105002D32D1002C40F3AB820F2969
:10307800DDDCCD18002D40F34383002910DD90F8E6
:1030880000C0C3F118070CFA07FB082942EA0B0233
:1030980030DD4178C3F1100701FA07F31A43023013
:1030A8006B1E4FF000470021002C47FA03FA05F188
:1030B8000B03D4BF002501250A2BD4BF002505F03A
:1030C800010502EA0A024FF00B0B002DCCD0B9F82B
:1030D800005005F00F05C5F1200822FA08F701375E
:1030E80039F817805FEA183706D15B1BAA4009EB4D
:1030F8004809AEE70130D3E7049DA5F10305D5F1F2
:10310800000A4AEB0505C8F303190995B9F10F0F31
:1031180014BF002505F00105DB1BBA40C8F30328DE
:10312800002D65D0109D5F18B8F1000F18BF01354C
:10313800BD4200F3E582AB4251DAEF1A7D1EEF087B
:103148000A970A9DEF001197DDF84490C3F1100A21
:10315800C9EB0A0584460295C3F11807DDF808A0F3
:103168001CF8019B3D4609FA05F9CAEB0707083D1B
:10317800083F5545C7F3C00742EA090223D057B1B3
:103188001CF801ABDDF808900AFA05F7083D4D4533
:1031980042EA070217D09A4663469CF8019013F852
:1031A80001CB0CFA05FCA5F1080742EA0C0203F171
:1031B800010C029BA7F1080509FA07F99D4242EAAA
:1031C8000902E9D153460A9FDDF844A008397D1C5D
:1031D8000833B1EBC7012844534400F1CF81DDF82F
:1031E80048C0059D22FA0CF909F10F095B1BAA409A
:1031F800B9F1000F05D002F0004A49EA0A09520065
:10320800013B099DB8F10F0F14BF002505F001051A
:10321800002D61D0109F5D18AF4200F371829F426C
:1032280051DD059FFD1AEF080997DDF82480C3F1E9
:10323800100A4FEAC808C8EB0A0584460295C3F18C
:103248001807DDF808A0CDF828801CF8018B3D464A
:1032580008FA05F8CAEB0707083D083F5545C7F3C4
:10326800C00742EA080222D04FB11CF801AB029F06
:103278000AFA05F8083DBD4242EA080217D09A4604
:1032880063469CF8018013F801CB0CFA05FCA5F104
:10329800080742EA0C0203F1010C029BA7F108059A
:1032A80008FA07F89D4242EA0802E9D15346099F05
:1032B800DDF828A008397D1C0833B1EBC701284484
:1032C800534400F16D81DDF848C0059D22FA0CF8E1
:1032D80008F10F085B1BAA40B8F1000F05D002F0F7
:1032E800004548EA05085200013B5B45C0F20282EE
:1032F800DDF820A0CAF800900AF10809CDF820905E
:10330800CAF80480023CDDF83890A2E60D9C069AC3
:103318000398009F52F82410019D446C05910020E9
:10332800002F0895179940F3AC8048F6300AC0F68C
:10333800010A48F638085AF82460DDF830B00698D3
:1033480048F62802C0F601085B4213F0070306EBB3
:103358000807C0F60102039718BF15F8017B52F859
:1033680024601CBFC3F1200207FA02F2C1F50E74F3
:1033780001EB0B074FF0000A08BF1A4600EB87095C
:103388000534009F5046C6F12006A042C3EB070152
:103398004FF0004B049674DA0F2940F3AB8095F890
:1033A80000806F78C3F1180CC3F1100608FA0CFC02
:1033B80007FA06F84CEA08073A4302351033103981
:1033C800DDF810C0DDF80C8022FA0CF618F806605B
:1033D80006F0080C4FEA16185FFA8CF7C8EB0303DF
:1033E80002FA08F2002F00F0AA8002F0004848F024
:1033F800010702975200013B06F004075FFA87FCB9
:10340800BCF1000F00F0988002F0004C4CF001076E
:1034180001975200013B06F002075FFA87F8B8F1FE
:10342800000F05D002F0004747F001085200013BA9
:1034380016F0010605D002F0004646F001065200DB
:10344800013B53451DDB029FC9F808800430A042A8
:10345800C9F80070ACBF4FF0000C4FF0010C019F91
:10346800C9F80C60092BD4BF4FF0000C0CF0010C0C
:10347800C9F8047009F11009BCF1000FA0D1A042ED
:103488008ADB05990D9A069B0818B0F5107F43F85A
:1034980022001ADA0C9D840005EB0009C4F51064BB
:1034A80003EB890000210423271FA3424150C7F3DF
:1034B80080020AD01AB10823A342416005D01A1D20
:1034C800C1500833A3428150F9D1079FDDF800802D
:1034D8003B68DDF8209008EB030A0AF0070109EBC6
:1034E800EA00DDF83CA03960CAEB000018B0BDE87E
:1034F800F00F7047CE18002EC3DD002910DD95F8B7
:1035080000C0C3F118070CFA07FA082942EA0A02B0
:1035180010DD6F78C3F1100307FA03F10A4302358F
:10352800731E4BFA03F10A4006F10A034FF00A0A28
:10353800002145E70135F3E7CDF804C06BE70297B2
:103548005AE7039C6569022D7FF482ACA769002FB6
:1035580040F0DC80656B546B45F2565A6F1CC5F21F
:10356800555A8AFB0752A2EBE77004EB40094FF467
:103578001075B9F92E2002EB420477E45B185D1E42
:103588004FF0004141FA05F1DDF848C0059D0A40B9
:1035980022FA0CF9002109F10F095B1BAA4027E662
:1035A8005B185D1E4FF0004141FA05F1DDF848C097
:1035B800059D0A4022FA0CF8002108F10F085B1B50
:1035C800AA4089E6CBEB0302DDF800C0DDF84CA089
:1035D8005018C0EB0C02D30FF8E435F817900E9F83
:1035E80009F00F01C1F12005023704974FF00009D7
:1035F8000595414615E090F800804778C3F1180C0E
:10360800C3F1100508FA0CFC07FA05F54CEA0505A4
:10361800023010331039002C42EA050226DC002C57
:103628005DDD0F29E7DCCD18002D65DD00290FDDF4
:103638000778C3F1180807FA08F7082942EA0702C9
:1036480056DD4178C3F1100901FA09F31A43023033
:103658006B1E4FF0004848FA03FC0021002C02EAD8
:103668000C0205F10B034FF00B09D8DDDDF814C08F
:10367800049F22FA0CF537F815504FEA153CC5F3AC
:103688000317CCEB030302FA0CF22FB102F0004C43
:1036980047EA0C075200013BC5F303252DB102F0A0
:1036A800004C4CEA05055200013B4B4524DB023C2B
:1036B800002CD4BF4FF0000C4FF0010C0A2BD4BFE4
:1036C8004FF0000C0CF0010CCBF80070CBF8045054
:1036D8000BF1080BBCF1000FC8D1002CA1DCC9EB21
:1036E8000302DDF800805018C0EB0802D30F6DE428
:1036F8000130ADE7DDF84CA001234FF0FF3265E45F
:10370800DDF84CA001234FF0FF325FE4107848B990
:103718000398576B456B6C1C4FF4107537F91440C0
:10372800FFF7A4BB526BB2F93440B2F93690B2F944
:103738000C80C4EB090C08EB4C044FF41075FFF730
:1037480095BB00BF022A2DE9F00778D002EBC2042E
:1037580027014BF2C01C4837C0F6010C026857F825
:103768000C60BC441546DCF8443086FB05750D60DA
:1037780083FB02424A644368DCF84050DCF80420CA
:103788001C4682FB04744C6085FB03430B6483680E
:10379800DCF83C50DCF808601A4686FB02728A6046
:1037A80085FB0343CB63C368DCF83850DCF80C4076
:1037B8001A4684FB0272CA6085FB03438B63036964
:1037C800DCF83420DCF810601C4686FB04740C61BD
:1037D80082FB03434B634369DCF83020DCF8145068
:1037E8001C4685FB04744C6182FB03430B638369AD
:1037F800DCF82C20DCF818601D4686FB05758D6109
:1038080082FB0343CB62C269DCF82850DCF81C60F9
:10381800144686FB0474CC6185FB02428A62046A02
:10382800DCF82030DCF82400224683FB02520A62CE
:10383800234680FB03234B62BDE8F00770474BF239
:10384800C013C0F601038468D3F838C18CFB042484
:103858008269D3F8205185FB0262A7180F6044687B
:10386800D3F83C7187FB0424C269D3F8245185FB43
:103878000262A6184E600468D3F8406186FB0424EF
:10388800026AD3F8285185FB0282A5188D60046866
:10389800D3F8445185FB0424026AD3F82CA18AFB8F
:1038A8000292A218CA604468D3F84821A04682FB55
:1038B8000848C469D3F8309189FB04A444440C61D6
:1038C800D0F80880D3F84C4184FB0898D0F818A0A9
:1038D800D3F83491534689FB03A343444B614369AE
:1038E8008CFB03838B61036987FB03C3CB61C368CC
:1038F80086FB03730B62C36885FB03634B62036932
:1039080082FB03538B62426984FB02320023CA6242
:103918004B640B64CB638B634B630B638CE700BF17
:103928002DE9F00F8CB0002B39D112F0010208BF3D
:10393800104630D0D0F88081D0F880C2D0F880739B
:10394800D0F88064D0F88055D0F88046D0F8801739
:10395800D0F88028D0F88090C8F10008C9F1000993
:10396800CCF1000C7F4276426D4264424942524299
:10397800C0F88090C0F88081C0F880C2C0F8807319
:10398800C0F88064C0F88055C0F88046C0F8801739
:10399800C0F8802818460CB0BDE8F00F70470568DD
:1039A80012F0010F4FF0010BC3F11F020BFA02FADC
:1039B8004FEAE57645FA02F70AF1FF3400F0028291
:1039C800BE4218BF84EA0605D0F88060764246FAFF
:1039D80002FA05FA03F54FEAE67BEF17D34518BF5D
:1039E80084EA0B0606FA03F6C0F88060056087EAE9
:1039F8000508C7EB08090D68F71787EA060CC7EB37
:103A08000C08EE1745FA02F7BE4218BF84EA06050D
:103A180005FA03F70F60D0F8006146FA02FBF517C4
:103A28005D4518BF84EA0506D0F880516D4245FA15
:103A380002FC06FA03F64FEAE57BF717E34518BFE1
:103A480084EA0B0587EA060A48EA0908C7EB0A0967
:103A580005FA03F7C0F80061C0F880714D68CDF829
:103A680004904FEAE57C45FA02F9FE17CC4518BFE9
:103A780084EA0C0586EA070AC6EB0A0705FA03F684
:103A88004E600297D0F8007247FA02FBFD175D45B9
:103A980018BF84EA0507D0F880526D4245FA02FC47
:103AA80007FA03F74FEAE57BFE17E34518BF84EAF8
:103AB8000B0505FA03F5C0F88052C0F8007286EAD3
:103AC800070A8F68C6EB0A09EE1786EA050ACDF8D9
:103AD8000C90FD1747FA02F94D4518BF84EA05070F
:103AE800C6EB0A06049607FA03F68E60D0F8007350
:103AF80047FA02FCFD17654518BF84EA0507D0F8A8
:103B080080536D4245FA02F907FA03F74FEAE57C5C
:103B1800FE17CC4518BF84EA0C0586EA070BC6EBEE
:103B28000B0A05FA03F6C0F80073C0F88063CD6885
:103B3800CDF814A045FA02F94FEAE57AF717CA4515
:103B480018BF84EA0A0587EA060B05FA03F6CE6071
:103B5800C7EB0B070697D0F8007447FA02FCFD176D
:103B6800654518BF84EA0507D0F880546D4245FAC8
:103B780002F907FA03F74FEAE57CFE17CC4586EA17
:103B8800070B18BF84EA0C05C6EB0B0A05FA03F508
:103B9800C0F80074CDF81CA0C0F880540F6947FA2B
:103BA80002F94FEAE77AEE17CA4518BF84EA0A070E
:103BB80086EA050B07FA03F70F61C6EB0B060896B2
:103BC800D0F8006546FA02FCF517654518BF84EA87
:103BD8000506D0F880556D4245FA02F906FA03F653
:103BE8004FEAE57CF717CC4518BF84EA0C0587EA4D
:103BF800060BC7EB0B0A05FA03F7C0F80065C0F817
:103C080080754D69CDF824A0FE1745FA02FA86EAB8
:103C1800070BEF17574518BF84EA070505FA03F79E
:103C28004F61C6EB0B09D0F80066CDF8289046FA2C
:103C380002FCF517654518BF84EA0506D0F88056DA
:103C48006D4245FA02F906FA03F64FEAE57AF717E4
:103C5800CA4518BF84EA0A0587EA060BC7EB0B0BAF
:103C680005FA03F7C0F80066C0F880768D69FE177C
:103C780045FA02FA86EA070CEF17574518BF84EA97
:103C8800070505FA03F78F61C6EB0C09D0F8006742
:103C9800CDF82C9046FA02FCF517654518BF84EA62
:103CA8000506D0F880576D4245FA02F906FA03F680
:103CB8004FEAE57CF717CC45DDF80490C0F80067BB
:103CC80087EA060A18BF84EA0C05DDF808C0C7EBC6
:103CD8000A0748EA090ADDF80C80DDF810904AEA7C
:103CE8000C0646EA080ADDF814C0DDF818804AEA2E
:103CF800090646EA0C09DDF81CA0DDF820C049EAEF
:103D0800080646EA0A09DDF8248049EA0C0A05FA99
:103D180003F5DDF828C0C0F880574AEA080646EAE5
:103D28000C09DDF82C80CE694FEAE57C49EA0B0BDB
:103D38008CEA050A4BEA080BF51746FA02F84545DE
:103D480018BF84EA050606FA03F6CE61D0F80068C3
:103D5800CCEB0A09F51746FA02FA554518BF84EA6A
:103D68000506D0F880586D424FEAE57845FA02FA20
:103D780006FA03F6D04518BF84EA08054FEAE67C40
:103D88004BEA0707C0F8006847EA09078CEA060902
:103D980005FA03F6C0F880680D6AF017CCEB09093C
:103DA80046404FEAE57845FA02F249EA0707301A31
:103DB800904547EA000001D084EA080505FA03F3B4
:103DC8000B62E8E5BE4218BF84EA0605D0F88060B9
:103DD80005FA03F546FA02F94FEAE67AEF17CA45FB
:103DE80087EA050818BF84EA0A06C7EB080B06FA33
:103DF80003F70560C0F880700E684FEAE77C46FA62
:103E080002F98CEA0705F7174F4518BF84EA070639
:103E180006FA03F70F60CCEB0508D0F8005145FA15
:103E280002FAEE17564518BF84EA060505FA03F6A6
:103E3800D0F88051C0F80061F71748EA0B0887EA04
:103E4800060C45FA02FBEE175E4518BF84EA060524
:103E580005FA03F6C0F880614D6845FA02FA4FEAA0
:103E6800E57BC7EB0C0CF717D34518BF84EA0B05A5
:103E780087EA060905FA03F64E60C7EB09070197BA
:103E8800D0F8007247FA02F9FD174D4518BF84EAC9
:103E98000507D0F8805207FA03F745FA02FA4FEA05
:103EA800E579FE17D14518BF84EA0905C0F8007204
:103EB80086EA070B05FA03F7C0F880728D68C6EB2F
:103EC8000B0645FA02FA4FEAE5790296FE17D14544
:103ED80018BF84EA090586EA070BC6EB0B0705FA43
:103EE80003F68E600397D0F8007347FA02FBFD17BC
:103EF8005D4518BF84EA0507D0F8805307FA03F731
:103F080045FA02FA4FEAE57BFE17D34518BF84EA63
:103F18000B05C0F8007386EA070905FA03F7C0F82D
:103F28008073CD68C6EB090645FA02FA4FEAE57BCD
:103F38000496FE17D34518BF84EA0B0586EA0709DD
:103F4800C6EB090705FA03F6CE600597D0F80074AA
:103F580047FA02F9FD174D4518BF84EA0507D0F85E
:103F6800805407FA03F745FA02FA4FEAE579FE1793
:103F7800D14518BF84EA0905C0F8007486EA070B22
:103F880005FA03F7C0F880740D69C6EB0B0645FA0D
:103F980002FA4FEAE5790696FE17D14518BF84EA7A
:103FA800090586EA070BC6EB0B0605FA03F7079621
:103FB8000F61D0F8005545FA02FBEE175E4518BFB1
:103FC80084EA060505FA03F7D0F88055C0F80075AD
:103FD800FE1745FA02FB86EA0709EF175F4518BF87
:103FE80084EA070505FA03F7C0F880754D69C6EB42
:103FF800090AFE1745FA02FB86EA0709EF175F452B
:1040080018BF84EA070505FA03F74F61D0F8005690
:10401800CDF820A0C6EB090A45FA02F9EE174E457D
:1040280018BF84EA060505FA03F7D0F88056C0F8E9
:104038000076FE1745FA02F986EA070BEF174F4597
:1040480018BF84EA070505FA03F7C0F880768D697A
:10405800CDF824A0C6EB0B0AFE17CDF828A086EAF7
:10406800070B45FA02FAEF17574518BF84EA070508
:1040780005FA03F78F61D0F80057C6EB0B0B45FA2A
:1040880002F9EE174E4518BF84EA060505FA03F74C
:10409800D0F88057C0F80077FE1745FA02F986EA8B
:1040A800070AEF174F45C6EB0A06DDF804A018BF4C
:1040B80084EA070548EA0C07DDF808C0DDF80C803B
:1040C80047EA0A0949EA0C0ADDF810C0DDF814903D
:1040D8004AEA080747EA0C0ADDF818804AEA090C98
:1040E800DDF81C90DDF820A04CEA080705FA03F576
:1040F80047EA0908DDF824C0C0F8805748EA0A07EB
:10410800DDF8289047EA0C0ACF694FEAE57C4AEACD
:10411800090848EA0B0B8CEA050A47FA02F8FD176A
:10412800454518BF84EA050707FA03F5CD61D0F8BD
:104138000058CCEB0A09EF1745FA02FA574518BFA1
:1041480084EA070505FA03F7D0F88058C0F8007824
:104158004FEAE57845FA02FAD04518BF84EA08051F
:104168004FEAE77C4BEA060646EA09068CEA0709A5
:1041780005FA03F7C0F880780D6AF817CCEB09093F
:1041880047404FEAE57845FA02F249EA0606381A46
:10419800904546EA00007FF40FAE0FE62DE9F04F98
:1041A800EBB02C912992002801F002870368002BBC
:1041B80001F0FE8644682B94002C01F0F986C5684E
:1041C8000295002D01F0F48640692790002801F03F
:1041D800EF862C9DDDF8B09018785A6B299FEB007C
:1041E80003EB0906DDF8A4902B9D2D93FC0031010B
:1041F800002814BF4FF0060A4FF0080A2E944C44CA
:1042080001EBC40332F91A00EB1848F63962C3F619
:10421800E302C71782FB0068DD6BC7EBA80631B263
:10422800022D289101F0A48609F59061DDF808C0F7
:104238000A915CF8213040F2262B5B4540F3E78673
:1042480040F2362A2027CDF834A04FF01F0C1D97D6
:10425800DDF8B8B0DDF8A490029C0BEB09031A0254
:10426800BCF1000F04EB020541F397864BF23008CE
:10427800C0F601082B46D8F81410D8F81820049175
:10428800D8F81C1003920891D8F82020D8F82410E8
:104298008DE80600D8F82820D8F82C100992059146
:1042A800D8F83020D8F83410D8F800700792069162
:1042B800D8F83820D8F83C10D8F80460D8F8084066
:1042C800D8F80C00D8F810B00F920C950B978A46C6
:1042D8005D6CD3F848800B9F294687FB0121424635
:1042E80086FB0292891A4A005A64C14687FB09195B
:1042F800294686FB01511D6CD3F84C8009EB010758
:104308007A009A64294684FB0121474680FB079777
:10431800CA1B57001F64C14684FB0919294680FB44
:104328000151DD6BD3F8508009EB01025700DF64BF
:1043380029468BFB0121049F424687FB0292891A7A
:104348004A00DA63C1468BFB0919294687FB0151EC
:104358009D6BD3F8548009EB010257001F6529466D
:10436800039F87FB0121089F424687FB02928A1A16
:1043780057009F63C146039F87FB0919089F294679
:1043880087FB01515D6BD3F8588009EB0102570098
:104398005F652946019F87FB0121009F424687FBF5
:1043A80002928A1A57005F63C146019F87FB091969
:1043B800009F294687FB01511D6BD3F85C8009EBF0
:1043C800010257009F652946099F87FB0121059F28
:1043D800424687FB02928A1A57001F63C146099F0B
:1043E80087FB09192946059F87FB0151DD6AD3F828
:1043F800608009EB01025700DF652946079F87FBAC
:1044080001214246069F87FB02928A1A5700DF6203
:10441800C146079F87FB09192946069F87FB01515B
:104428009D6AD3F8648009EB010257001F6629468C
:104438000F9F87FB012142468AFB0292891A4A0094
:104448009A6287FB08288AFB052508EB05077D008B
:104458005D664833BCF1010C7FF43AAFDDF8B0C0BB
:10446800DDF8B480DDF8B890DDF8A4B02B9B0C9D86
:1044780008EB0C0409EB0B06200100EBC60A03EB62
:104488000A0CDCF840300A9E029CDDF834B054F87F
:104498002620DDF8A4A027989345A8BF5A4648F6D9
:1044A800396C0AF5D86802F11107C3F6E30C44F831
:1044B800262008F1020A08F1040BF9178CFB07C93A
:1044C800279C279A54F82860CDF8A880C1EBA90743
:1044D800259750F82A1052F82B70CDF8C0A0CDF8C7
:1044E800C4B01B9618911997002B01F03885DDF898
:1044F800B4A0DDF8B0902E9C2998DDF808802B999F
:104508000AEB0906DDF828A023180AF10200320197
:10451800DF011E0202EBC30958F82040279B1D98B3
:104528001C9407F5905C01F128079A1907EB09011B
:10453800002803EB0C042F921A9141F314851C995F
:1045480032954FF0000AC1F1070E4EF6A13C4BF62A
:104558008B6B41F67E220629D4BFF046D046002355
:10456800C6F6D96CC6F20D2BC1F23A62CDF83CA062
:10457800CDF89880A5F1040AA84604F12406DDF8D0
:10458800BC900993CDF810C0CDF80CB008923394C4
:10459800754600F0C2BC43FA05F342FA05F1CA1A9F
:1045A80057934E9256F8044C44FA05F746F8047CA3
:1045B800D8F83C00DAF83C1040FA05FCC2EB0C0EC7
:1045C80041FA05FBCEEB0B02C3EB0E0356934D925B
:1045D80056F8084C44FA05F746F8087CD8F8340031
:1045E800DAF8341040FA05FCC2EB0C0E41FA05FB70
:1045F800CEEB0B02C3EB0E0355934C9256F80C4CC2
:1046080044FA05F746F80C7CD8F82C00DAF82C1098
:1046180040FA05FCC2EB0C0E41FA05FBCEEB0B028F
:10462800C3EB0E0354934B9256F8104C44FA05F71B
:1046380046F8107CD8F82400DAF8241040FA05FC73
:10464800C2EB0C0E41FA05FBCEEB0B02C3EB0E03DB
:1046580053934A9256F8144C44FA05F746F8147CDA
:10466800D8F81C00DAF81C1040FA05FCC2EB0C0E56
:1046780041FA05FBCEEB0B02C3EB0E0352934992B2
:1046880056F8184C44FA05F746F8187CD8F8140080
:10469800DAF8141040FA05FCC2EB0C0E41FA05FBDF
:1046A800CEEB0B02C3EB0E035193489256F81C4C09
:1046B80044FA05F746F81C7CD8F80C00DAF80C1018
:1046C80040FA05FCC2EB0C0741FA05F4FB1AE71B9C
:1046D8005093479756F8201C41FA05F046F8200CED
:1046E800D8F80420DAF8041042FA05F4E01B41FA7D
:1046F80005FBC0EB0B04C21A4F92469456F8247C73
:1047080047FA05F046F8240C469B479A4B9FDDF87C
:104718003CE148984A9CDDF838C159100291D319F8
:104728004FEA6E0B4C9FDDF808E001934D99CDF8E8
:1047380030B0031BC7EB0E0700EB040E00EB0C04B4
:1047480001980E975118471ACCEB030B0097CDF838
:1047580040B0499B049F87FB03C30B934B9BD01A24
:104768004D9A831A9B4687FB0B3BCDF814B0DDF8B6
:104778000CC077468CFB0737DDF820B0A4468BFBCE
:104788000C3CDDF80CB0CEEB04048BFB0434DDF8F4
:1047980020B08BFB0E3E4DF649520098C5F24622DA
:1047A80082FB003042F632630790C7F60E6383FB44
:1047B80001B1019882FB00B00190009883FB00B022
:1047C8004FEA4C0C00904FEA4E000CEB470ECDF828
:1047D80018E0C0EB4404DDF808B04C980B9FDDF8F6
:1047E80000C00BEB600E78000EEB0007C0EB0E006C
:1047F800DDF81CE0DDF804B0490001EB4E01DDF8FE
:1048080018E04FEA4C0CCCEB4B0C0EEB040BCDF83C
:1048180000B0DDF840E0DDF838B00BEB6E0EDDF8E7
:1048280014B0CDF804E04FEA4B0BCDF814B0DDF826
:1048380018B0BB44CDF81CB000EB040BCDF858B051
:10484800DDF800B0CBEB000BCDF85CB0DDF800B0C4
:104858003C19CBEB070B069FCDF808B0C019079F92
:10486800DDF814B00090C819019F469007EB0B00C3
:10487800169F47900CEB0700179F4890C1EB0C0E52
:10488800CEEB07004990109F0E98C01B4A90029FDC
:1048980001980EEB070BDDF814E0009FCDF82CB162
:1048A800CCEB0404CEEB000C781A5099549F0E9070
:1048B800C819509F5699019078185399519F0B9099
:1048C8007F1A0E980C994C94559C4E90081B079093
:1048D800519C57985399DDF804B0DDF82CE0CDF8D9
:1048E80034C1CEEB0B0B04EB010C391A2418CDF8AC
:1048F80018B002915298049F87FB0010509F1090A7
:104908005498391A56980F1ABB46049F87FB0B1BFD
:10491800CDF800B0E646DDF80CB08BFB0E1E089F04
:10492800214687FB01B1039FCCEB040487FB04B449
:10493800089F87FB0CBC069882FB00B005900B9F74
:1049480083FB07B7019882FB00B00190069A83FBAE
:1049580002B24FEA4C03C3EB4404DDF830B055987B
:10496800109BDDF814C0490001EB4E010BEB600E03
:1049780058007B0003EB4C030EEB0007DDF808C082
:10498800DDF804B0C0EB0E00DDF81CE00EEB6C0C9B
:10499800DDF800E0CDF814C04FEA4E0ECDF804E083
:1049A800520007EB010EC2EB4B02CDF800E001EB21
:1049B800040B00EB040ECDF818E0CBEB000ECBEBAC
:1049C800070BCDF82CB007EB040B44189DE88200C8
:1049D800CDF830E058180599DDF818E04F90C8195F
:1049E800509007990C9F02EB0E00DDF808E0CEEB23
:1049F800010153910B995190C3EB020CCCEB0707C3
:104A0800C2EB0B028C44E41ADDF814B00199159836
:104A18000D9B5297C1EB0B0E50EA0307CDF850C11E
:104A28005592CDF858E1579440F002834EF65C3029
:104A3800C0F6273080FB0424DDF828C00E9FDCF880
:104A48000020BB104CF68B67E118C3EB040E5042F4
:104A5800C4F2AA27CCF80010CEEB00033C4683FB37
:104A6800041442F22471CCF2E9210EEB840083FB9A
:104A78000141C2EB81014FEAE07B4FEAE17CC9F8D2
:104A88000000C9F880188BEA00008CEA01024FF692
:104A98008334569BCDF804B0CDF800C01190129223
:104AA800C2F2201484FB03134D9956F8204C881049
:104AB80041F62841C0EB030E62421B18C4F2317163
:104AC80046F8203CCEEB020C08468CFB003046F240
:104AD8009A13CCF65F130EEB80008CFB03E3C4EB58
:104AE8008304E2170792DDF81CE0C9F880004FEA5A
:104AF800E07BC9F800488BEA00008EEA040245F61C
:104B0800EE2C559BCDF814B013901492C3F2186C88
:104B18008CFB03034C9C56F81CECA01048F6EB7475
:104B2800C0EB030CCEF100021B18C4F6862446F82D
:104B38001C3CCCEB020B20468BFB003049F68C5317
:104B4800CDF285030CEB80008BFB03C3CEEB830314
:104B5800DA170292DDF808C0C9F800014FEAE07BD5
:104B6800C9F880378BEA00008CEA03034FF2E2327F
:104B7800DDF850E1CDF818B015901693C4F66A1216
:104B880082FB0E0E4B9856F818CC821043F6513023
:104B9800C2EB0E0B0EEB0203C4F69140CCF10002FF
:104BA80046F8183CCBEB0202864682FB0E3E43F6E3
:104BB800A063CDF624030BEB8E0E82FB03B3CCEB84
:104BC80083034FEAEE720D924FEAE37BCDF830B0E3
:104BD800DDF834B0C9F880E1C9F800378BEA0E0B6C
:104BE800DDF830E0DDF84CC1CDF85CB08EEA0303A7
:104BF80047F69A121E93C5F68222634682FB03E3A8
:104C08004A9A56F814EC921043F6CC4BC2EB030CBC
:104C1800C4F6415B9B18CEF1000246F8143CCCEB7D
:104C280002025B4682FB03B30CEB830C4FF060433C
:104C380082FB03B3CEEB83034FEAEC720B924FEA8D
:104C4800E37BCDF838B0DDF82CB0C9F800C2C9F85C
:104C580080368BEA0C0BDDF838C0DDF848E1CDF87A
:104C68007CB08CEA03034FF664122093C6F6D9028F
:104C7800734682FB03E3499A56F810EC4FEAA20BFD
:104C880003EB0B0CCBEB0302CEF1000B46F810CC78
:104C9800C2EB0B03844683FB0C0C4CF2611BCEF277
:104CA800DB7B02EB8C0283FB0BCBCEEB8B00C9F8D2
:104CB8008022C9F80006DDF844B14FEAE27C4FEAE9
:104CC800E07E8CEA02028EEA00004EF2C143219295
:104CD8002290C7F201435A4683FB0202489B56F8CA
:104CE8000C0C9B10C3EB020BD318424246F80C3C49
:104CF800CBEB020282FB043446F27523CEF67A73BC
:104D08000BEB840482FB03B3C0EB8303DA17E017D1
:104D1800C9F80043C9F88035444010922394109C88
:104D2800DDF840B15C4047F21D522494C7F6A33227
:104D38005B4682FB0343479A56F8084C9210C2EB35
:104D4800030B9B18624246F8083CCBEB020282FB3D
:104D5800013149F66763CFF2A0630BEB810182FB57
:104D680003B3019ADDF844B0C2EB0B0BCDF804B0E5
:104D7800009ADDF848B0C2EB0B0B019A42EA0B0B24
:104D8800CDF800B0059ADDF84CB0C2EB0B0B009AD9
:104D980042EA0B0BCDF800B0079ADDF850B0C2EB31
:104DA8000B0B009A42EA0B0BCDF800B0069ADDF81F
:104DB80054B0C2EB0B0B009A42EA0B0BCDF800B0D3
:104DC800029ADDF858B0C2EB0B0B009A42EA0B0BC3
:104DD800CDF800B00D9ADDF85CB0C2EB0B0B009A71
:104DE80042EA0B0BCDF800B00C9ADDF878B0C9F8A0
:104DF8008013C2EB0B0B009A42EA0B0BCDF800B004
:104E08000B9ADDF87CB0C2EB0B0B009A42EA0B0B55
:104E1800CDF800B00E9ADDF880B0C2EB0B0B009A0B
:104E2800CDF804B042EA0B0BCDF800B0DDF884B041
:104E3800CCEB0B02DDF800B04BEA0202DDF888B0DB
:104E4800CEEB0B0CDDF88CE042EA0C02C0EB0E0B4B
:104E5800DDF840C02498C4EB8303CC174FEAE37E07
:104E6800614042EA0B02CCEB000BC9F8003542EA7C
:104E78000B028EEA03030C1B42EA0401CEEB030C7F
:104E880044F6D06B4F9841EA0C0CC7F6837B8BFB3A
:104E98000030469A56F8041C9410021B0319484225
:104EA80046F8043CC2EB000E8EFB07374DF6DD04D6
:104EB800CFF6165402EB87028EFB0474C1EB840410
:104EC800E017D11780EA040781EA020B3B1AC1EB0D
:104ED8000B0743EA0700C9F88044C9F8002440EAF0
:104EE8000C0448460A99099A269BFEF719FDDDF835
:104EF8003CC0099904434CEA040BDDF874C0CDF8B2
:104F08003CB04F1C24366745099708F1480809F159
:104F180004090AF1480A00F07A82DDF868E0DEF850
:104F28001440DEF818000D94A6F124070A9730B152
:104F3800289ADDF824B05A45C8BF00240D94189B60
:104F4800DDF824E019991C9C08F1440C8E45B8BF83
:104F58000023062C15935CF8042CD8F844307FF70E
:104F68001AABD71A57934E97D8F83C20DAF83C106A
:104F7800D41B0A1BE31A56934D92D8F83400DAF87A
:104F88003470C2EB000CCCEB0701C3EB0C03559358
:104F98004C91D8F82C40DAF82C70601AC31A3C1AD5
:104FA80054934B94D8F82420DAF82410171BCA1B02
:104FB800FC1A53944A92D8F81C00DAF81C10C2EB79
:104FC800000BCBEB0103C4EB0B0449935294D8F8C4
:104FD8001470DAF81410F81A031B0F1A5193489733
:104FE800D8F80C20DAF80C40D01B221AC71A5097B0
:104FF8004792D8F80410DAF80440C2EB010ECEEB61
:105008000400C7EB0E034F934690FFF77DBB0733B1
:1050180082FB0394D817C0EBA40C0CEBCC067200EF
:105028000CF101080832CDF874800D92FFF710B921
:105038000A98159A58A9FEF785FB0D9B03EBC30246
:105048004BF2C0131001C0F601034EF65C3B1A1870
:10505800C0F6273B8BFB04740E998910671846F835
:10506800247C1F58C4EB010BBC468BFB0C3C5899A5
:10507800536C0CEB0104A1008BFB03036998C9F87E
:1050880000101F18BB00C817DC17C9F8803841404A
:105098006340C0EB010BC4EB030C4CEA0B044FF666
:1050A8008330569F0B94C2F2201080FB07374D992E
:1050B8008C103B1946F8203C5068C7EB040C8CFB5D
:1050C8000030599F136CC11988008CFB0343689CFE
:1050D800C9F880001F19BC004FEAE07B4FEAE47C66
:1050E800C9F800488BEA000145F6EE238CEA040073
:1050F800559FCDF804B0CDF800C00E911090C3F2C2
:10510800186383FB07074C998B10FC1846F81C4C56
:105118009068C7EB030C8CFB00305A99D76B441886
:10512800A4008CFB0707679BC9F80041F9188F009A
:10513800C9F88077F81754990590059B4FEAE47EE3
:105148008EEA040483EA07004FF2E23B11941290BE
:10515800C4F66A1B8BFB01014B9CA310CF1846F8C1
:10516800187CD0685F1A87FB00305B9C936B001932
:10517800840087FB03036699C9F880415F18B8006B
:105188004FEAE07BE717C9F800077C408BEA000389
:1051980047F69A1C539913941493C5F6822C8CFBEA
:1051A80001014A988310CC1846F8144C1069C1EBD9
:1051B800030C8CFB00305C99536B401880008CFB0F
:1051C8000343659CC9F8000219198C00E31706937C
:1051D8004FEAE07CCDF81CC08CEA0000DDF818C06E
:1051E800C9F880464FF664138CEA04045299159066
:1051F8001694C6F6D90383FB0101499B9C10081934
:1052080046F8100C5369C1EB040C8CFB03035D9941
:10521800146B5818800023468CFB03436499C9F823
:1052280080025C18A300C11702914FEAE37CCDF815
:1052380034C0DDF808C0C9F800368CEA00001790C1
:105248000D98519C43404EF2C1411E93C7F2014153
:10525800234681FB0303489CA110581846F80C0C00
:105268009469C91AA44681FB0C0C5E98D46A604400
:105278008000A44681FB0C4C639BC9F800030CEB2F
:105288000304A300D917C4170C9160401F900C9811
:10529800C9F8803547F21D514340DDF840C12093DD
:1052A800C7F6A33181FB0C0C479881100CEB010366
:1052B80046F8083CD069CCEB0101034681FB0303A7
:1052C8005F98D2F828C018188000634681FB03C392
:1052D800DDF800C01099CCEB01010091DDF804C0A5
:1052E8000E99CCEB0101DDF800C001914CEA0101F7
:1052F80000911199CEEB0101DDF800E04EEA010CB6
:10530800CDF800C0DDF848E0DDF814C0CCEB0E01A4
:10531800DDF800E0DDF84CC04EEA010E1499C7EB49
:105328000C0C4EEA0C0ECBEB0107DDF81CC0DDF8C7
:1053380054B0CCEB0B01DDF858B0DDF818C04EEADC
:10534800070E4EEA010E629FC9F88003CCEB0B01F1
:10535800DDF85CB0DDF808C04EEA010ECCEB0B0CB2
:10536800DB19DDF834B01E9F4EEA0C0EDDF87CC068
:10537800CBEB07014EEA010BC4EB0C04DDF880E02F
:10538800DDF830C09B00C717D91778404BEA0404F2
:10539800CCEB0E0B44EA0B0481EA030EC01BC9F8E0
:1053A800003544EA000CC1EB0E03DDF82CB04F9F2A
:1053B8004CEA030144F6D06E4BEA010BC7F6837E34
:1053C8008EFB0717469CA310F81846F8040C116AC0
:1053D800C7EB030E8EFB0131609C536A0A199400D7
:1053E8008EFB03236198C9F800441F18BB00E0171F
:1053F800D91780EA040281EA030C141AC1EB0C0ED7
:105408004EEA0402C9F8803442EA0B0469E5329D89
:10541800339E0CEBCC0005EBC00506EB8004DDF8F1
:105428007480DDF89490C84580F26E83DDF874A02E
:105438002F9FCDF804A047F21D5B47F69A1E4EF643
:10544800A1334BF2C018C6F6D963C7F6A33BC5F61D
:10545800822E07EB8A092646C0F601080493CDF888
:105468000CB0CDF820E01694199C1899DDF804C00A
:10547800A445B8BF00211C9C0D910027062C6DDCAB
:1054880095E80C00C4F1070742FA07F243FA07F35C
:1054980085E80C00306840FA07F43460A968EB68C6
:1054A80041FA07F243FA07F0AA60E860746844FA20
:1054B80007F171602B69686943FA07F240FA07F44B
:1054C8002A616C61B16841FA07F3B360A869EC69B5
:1054D80040FA07F244FA07F1AA61E961F36843FA6E
:1054E80007F0F0602C6A696A44FA07F241FA07F398
:1054F8002A626B62306940FA07F43461A96AEB6A80
:1055080041FA07F243FA07F0AA62E862746944FABA
:1055180007F171612A6B6B6B42FA07F043FA07F4E3
:1055280028636C63B16941FA07F3B361AA6BE86B4E
:1055380042FA07F440FA07F1AC63E963F36943FA06
:1055480007F2F261286C6C6C40FA07F144FA07F331
:1055580029646B64326A42FA07F03062EA6B296B9D
:10556800D5F824A0AB69EC682868891AC1EB0A0B46
:10557800CBEB0303E41AC2EB0B0E001BCEEB0404C7
:10558800DDF810B040104FEA640A8BFB034300EBD0
:1055980061045B0003EB040CCDF808C0401AE41A60
:1055A8008BFB0E3E4FEA4E0E0AEB620CDDF80CB098
:1055B8000EEB0C038BFB03130899C2EB0A024FEAAC
:1055C800830B81FB02324FF68333CEEB0C014FEA9B
:1055D800820AC2F2201383FB01214FEA810E02994D
:1055E80001EB0B0204EB0E01CEEB04040594029CC4
:1055F8005A91CBEB040400EB0A0C0794CAEB0000A9
:105608005C90099105980799CDF864C158925B9010
:105618005D91296CD5F834E0D5F828A00092C1EB4B
:105628000E0CEA692C696868CCEB0A0BCBEB02021A
:10563800A41AC1EB0B0E001BCEEB0404DDF810B06E
:1056480040104FEA640A8BFB0242520000EB6C04E4
:10565800CCEB000002EB040C0A90CDF818C0A41A99
:105668008BFB0E2E4FEA4E0E0AEB610CDDF80CB0E8
:105678000EEB0C028BFB0202C1EB0A014FEA820B14
:10568800DDF820A08AFB0121CEEB0C00890083FB0A
:1056980000204FEA800ADDF828E0CAEB04020292F3
:1056A8000EEB010C0A98CDF87CC104EB0A0E069C9F
:1056B800CDF880E1411ACBEB0400629161926390CE
:1056C800696CAC6BD5F82CA00A90641A286AD5F8D6
:1056D80014C0AA68C4EB0A0ECEEB0000C0EB0C0A9B
:1056E800DDF818C0C1EB0E0EE344CAEB0202CEEBA4
:1056F8000A0ACDF830B05210DDF810B04FEA6A0A45
:105708008BFB00C002EB640C4000141B00EB0C0286
:1057180006920E94C0EB0C008BFB0E4E4FEA4E0E19
:105728000AEB610C039A0EEB0C0482FB04B4DDF85F
:1057380020B0C1EB0A01A4008BFB01A1CEEB0C0247
:10574800890083FB02C2DDF838C09300C3EB000E6A
:1057580000EB030BC1EB0C03069A6893069BCDF88C
:1057680098B10CEB010A3046C4EB020C46A91C198F
:105778000D9ACDF894A10B94CDF89CE1CDF8A4C175
:10578800FDF7E0FF4698D8F820218100C9F80010FD
:10579800499B9800C4174FEAE17AC9F8800184EA66
:1057A80000038AEA010117940D91059C0E9382FB70
:1057B80004344C98D8F82C3104EB8001C817C9F888
:1057C800001380EA01041094079983FB0141DDF876
:1057D8003CC1D8F8384101EB8C014FEAE17EC9F8A9
:1057E80080148EEA01011191CDF814E0099984FB27
:1057F80001E1DDF808B082FB0B4B529AD8F844411E
:1058080001EB0B0C0CEB82014FEAE17EC9F80016A4
:105818008EEA01021292CDF81CE0009A84FB021273
:105828000A9983FB014102EB010B5599D8F82441F1
:105838000BEB8101C9F88017599B0094DDF870B112
:105848000293479A629C9200C9F880200A94CC1768
:105858004A9B0694DDF818C09B004FEAE27E8CEA6A
:105868000101DC17C9F8003213918EEA020184EABB
:105878000302149115920099DC4681FB0C2C4D997A
:10588800D8F830310CEB8102D117099381EA020371
:10589800C9F880231A93099A82FB0B3B0D9A179B30
:1058A800CAEB020C0E9AD31A4CEA030AD8F83C2128
:1058B800149B0D92CEEB0302DDF854E0509B4AEAAC
:1058C800020C0BEB8303C4EB0E02DDF840B0DDF8ED
:1058D80014E0C9F800354CEA0204DDF844C0C0EB16
:1058E8000B0A1A9844EA0A0BCEEB0C04DA17C1EB40
:1058F800000E4BEA040A82EA030C4AEA0E04DDF8B9
:105908001CB0DDF848A0DDF818E0C2EB0C00DDF8AB
:105918004CC0CBEB0A0144EA000242EA0104CEEB98
:105928000C0B02980D9944EA0B0C81FB00300A9A83
:10593800009C84FB021200EB020A5398D8F84841F5
:105948000AEB8003D91781EA0302501AC9F8803696
:105958004CEA000B029B84FB03230A99099880FBFD
:105968000121569C03EB010E0EEB8401C9F80018C7
:105978005A9A63980E92489A619B0D909200D8F8B3
:105988002801DDF874C1DDF86CE1589CC9F80021E4
:1059980000901093C8174B9B41409B00C0EB010A35
:1059A800D1174A40D817C9F8803205924BEA0A0A3B
:1059B80080EA03020792CDF828A0009A82FB0C3CEB
:1059C8004E9AD8F8343109930CEB82034FEAE37A04
:1059D800C9F800348AEA03020692099A82FB0E3E4D
:1059E800519BD8F840210EEB83034FEAE37CC9F8BA
:1059F80080358CEA0303029382FB04340D9B009AE2
:105A080082FB03E3549AD8F84CB104EB030E0EEB77
:105A180082034FEAE37EC9F800378EEA03040D9447
:105A28000E9A8BFB0232109B099C84FB03B3579C94
:105A3800DDF82CB0D3180C9A03EB84039410C9F842
:105A4800803834605F9A94107460609A4FEAAB04AF
:105A58009210B260F460659CDDF818B0A210326153
:105A6800669CA2107261679CA210079CB261059A9D
:105A7800201A689C511AA21040EA01040299F261A6
:105A8800CAEB0B000443CCEB01000D9944EA000C6F
:105A9800DA17699882EA030BCEEB01044CEA040199
:105AA800C2EB0B03821041EA030E32623B460A9FA7
:105AB800019A484631464EEA0704FDF731FFDDF802
:105AC80004A0DDF83CB0DDF894C00AF1010A44EA0C
